{
  "_format": "hh-sol-artifact-1",
  "contractName": "Auction",
  "sourceName": "contracts/AuctionBox.sol",
  "abi": [
    {
      "constant": true,
      "inputs": [],
      "name": "highestPrice",
      "outputs": [
        {
          "name": "",
          "type": "uint256"
        }
      ],
      "payable": false,
      "stateMutability": "view",
      "type": "function"
    },
    {
      "constant": true,
      "inputs": [],
      "name": "canceled",
      "outputs": [
        {
          "name": "",
          "type": "bool"
        }
      ],
      "payable": false,
      "stateMutability": "view",
      "type": "function"
    },
    {
      "constant": true,
      "inputs": [
        {
          "name": "",
          "type": "address"
        }
      ],
      "name": "bids",
      "outputs": [
        {
          "name": "",
          "type": "uint256"
        }
      ],
      "payable": false,
      "stateMutability": "view",
      "type": "function"
    },
    {
      "constant": true,
      "inputs": [],
      "name": "auctionState",
      "outputs": [
        {
          "name": "",
          "type": "uint8"
        }
      ],
      "payable": false,
      "stateMutability": "view",
      "type": "function"
    },
    {
      "constant": false,
      "inputs": [],
      "name": "cancelAuction",
      "outputs": [
        {
          "name": "success",
          "type": "bool"
        }
      ],
      "payable": false,
      "stateMutability": "nonpayable",
      "type": "function"
    },
    {
      "constant": true,
      "inputs": [],
      "name": "highestBidder",
      "outputs": [
        {
          "name": "",
          "type": "address"
        }
      ],
      "payable": false,
      "stateMutability": "view",
      "type": "function"
    },
    {
      "constant": true,
      "inputs": [],
      "name": "returnContents",
      "outputs": [
        {
          "name": "",
          "type": "string"
        },
        {
          "name": "",
          "type": "uint256"
        },
        {
          "name": "",
          "type": "uint256"
        },
        {
          "name": "",
          "type": "string"
        },
        {
          "name": "",
          "type": "uint8"
        }
      ],
      "payable": false,
      "stateMutability": "view",
      "type": "function"
    },
    {
      "constant": false,
      "inputs": [],
      "name": "placeBid",
      "outputs": [
        {
          "name": "",
          "type": "bool"
        }
      ],
      "payable": true,
      "stateMutability": "payable",
      "type": "function"
    },
    {
      "constant": true,
      "inputs": [],
      "name": "highestBindingBid",
      "outputs": [
        {
          "name": "",
          "type": "uint256"
        }
      ],
      "payable": false,
      "stateMutability": "view",
      "type": "function"
    },
    {
      "constant": false,
      "inputs": [],
      "name": "finalizeAuction",
      "outputs": [],
      "payable": false,
      "stateMutability": "nonpayable",
      "type": "function"
    },
    {
      "inputs": [
        {
          "name": "_owner",
          "type": "address"
        },
        {
          "name": "_project",
          "type": "string"
        },
        {
          "name": "_startPrice",
          "type": "uint256"
        },
        {
          "name": "_minIncrement",
          "type": "uint256"
        },
        {
          "name": "_description",
          "type": "string"
        }
      ],
      "payable": false,
      "stateMutability": "nonpayable",
      "type": "constructor"
    },
    {
      "anonymous": false,
      "inputs": [
        {
          "indexed": false,
          "name": "bidder",
          "type": "address"
        },
        {
          "indexed": false,
          "name": "bid",
          "type": "uint256"
        },
        {
          "indexed": false,
          "name": "highestBid",
          "type": "uint256"
        },
        {
          "indexed": false,
          "name": "highestBindingBid",
          "type": "uint256"
        }
      ],
      "name": "LogPlaceBid",
      "type": "event"
    },
    {
      "anonymous": false,
      "inputs": [
        {
          "indexed": false,
          "name": "finishPerson",
          "type": "address"
        },
        {
          "indexed": false,
          "name": "finishAccount",
          "type": "address"
        },
        {
          "indexed": false,
          "name": "amount",
          "type": "uint256"
        }
      ],
      "name": "LogFinished",
      "type": "event"
    }
  ],
  "bytecode": "0x608060405234801561001057600080fd5b50604051610a29380380610a29833981018060405260a081101561003357600080fd5b81516020830180519193928301929164010000000081111561005457600080fd5b8201602081018481111561006757600080fd5b815164010000000081118282018710171561008157600080fd5b505060208201516040830151606090930180519295919491926401000000008111156100ac57600080fd5b820160208101848111156100bf57600080fd5b81516401000000008111828201871017156100d957600080fd5b505060008054600160a060020a031916600160a060020a038a16179055865190935061010e9250600191506020870190610145565b5060028390556004829055805161012c906003906020840190610145565b50506005805460ff19166001179055506101e092505050565b828054600181600116156101000203166002900490600052602060002090601f016020900481019282601f1061018657805160ff19168380011785556101b3565b828001600101855582156101b3579182015b828111156101b3578251825591602001919060010190610198565b506101bf9291506101c3565b5090565b6101dd91905b808211156101bf57600081556001016101c9565b90565b61083a806101ef6000396000f3fe6080604052600436106100ae576000357c01000000000000000000000000000000000000000000000000000000009004806391f901571161007657806391f9015714610184578063c8287b58146101b5578063ecfc7ecc146102cb578063f5b56c56146102d3578063f77282ab146102e8576100ae565b80630e8670e0146100b35780633f9942ff146100da57806362ea82db146101035780637fb45099146101365780638fa8b7901461016f575b600080fd5b3480156100bf57600080fd5b506100c86102ff565b60408051918252519081900360200190f35b3480156100e657600080fd5b506100ef610305565b604080519115158252519081900360200190f35b34801561010f57600080fd5b506100c86004803603602081101561012657600080fd5b5035600160a060020a031661030e565b34801561014257600080fd5b5061014b610320565b6040518082600281111561015b57fe5b60ff16815260200191505060405180910390f35b34801561017b57600080fd5b506100ef610329565b34801561019057600080fd5b50610199610372565b60408051600160a060020a039092168252519081900360200190f35b3480156101c157600080fd5b506101ca610381565b6040518080602001868152602001858152602001806020018460028111156101ee57fe5b60ff168152602001838103835288818151815260200191508051906020019080838360005b8381101561022b578181015183820152602001610213565b50505050905090810190601f1680156102585780820380516001836020036101000a031916815260200191505b50838103825285518152855160209182019187019080838360005b8381101561028b578181015183820152602001610273565b50505050905090810190601f1680156102b85780820380516001836020036101000a031916815260200191505b5097505050505050505060405180910390f35b6100ef6104d0565b3480156102df57600080fd5b506100c861062a565b3480156102f457600080fd5b506102fd610630565b005b60065481565b600a5460ff1681565b60096020526000908152604090205481565b60055460ff1681565b60008054600160a060020a0316331461034157600080fd5b600160055460ff16600281111561035457fe5b1461035e57600080fd5b50600a805460ff1916600190811790915590565b600854600160a060020a031681565b6002805460045460055460018054604080516020601f60001985871615610100020190941698909804928301889004880281018801909152818152606096600096879689968896959294919360039360ff9092169291879183018282801561042a5780601f106103ff5761010080835404028352916020019161042a565b820191906000526020600020905b81548152906001019060200180831161040d57829003601f168201915b5050855460408051602060026001851615610100026000190190941693909304601f8101849004840282018401909252818152959a50879450925084019050828280156104b85780601f1061048d576101008083540402835291602001916104b8565b820191906000526020600020905b81548152906001019060200180831161049b57829003601f168201915b50505050509150945094509450945094509091929394565b60008054600160a060020a03163314156104e957600080fd5b600160055460ff1660028111156104fc57fe5b1461050657600080fd5b6000341161051357600080fd5b33600090815260096020526040812054610533903463ffffffff6107e616565b905061054c6004546006546107e690919063ffffffff16565b811161055757600080fd5b60088054600160a060020a0390811660009081526009602052604080822054338084529190922085905592549092911614156105975760068290556105b4565b60068290556004546105b090829063ffffffff6107e616565b6007555b6008805473ffffffffffffffffffffffffffffffffffffffff1916339081179091556006546007546040805193845260208401869052838101929092526060830152517f21e13668fb966f8d1cb3304fd4f68a4ee0a769fb9087353dcfe5ba868f91006a9181900360800190a160019250505090565b60075481565b600054600160a060020a0316331480610656575033600090815260096020526040812054115b151561066157600080fd5b600a54600090819060ff161561068857505033600081815260096020526040902054610746565b600054600160a060020a03163314156106c3575050600054600654600a805461ff001916610100179055600160a060020a0390911690610746565b600854600160a060020a031633141561073357600854600a54600160a060020a039091169250610100900460ff16156106fe5750600061072e565b600754600854600160a060020a031660009081526009602052604090205461072b9163ffffffff6107fc16565b90505b610746565b5050336000818152600960205260409020545b3360009081526009602052604080822082905551600160a060020a0384169183156108fc02918491818181858888f1935050505015801561078b573d6000803e3d6000fd5b506005805460ff1916600217905560408051338152600160a060020a038416602082015280820183905290517ff2061587675f041d80cf532c625efb2785e8be17e728f3c434fe69273a9b15c1916060908290030190a15050565b6000828201838110156107f557fe5b9392505050565b60008282111561080857fe5b5090039056fea165627a7a7230582040c687ac91eac419bfcefec904ac10eea1beb00511b187e5b32a1752c62e04b00029",
  "linkReferences": {},
  "deployedLinkReferences": {}
}